:100000000C947B010C94EF00189518951895189591
:100010001895189518951895189518951895189578
:10002000189518950C946C011895189518951895B5
:100030001895189518951895189518951895189558
:100040001895189518951895189518951895189548
:1000500018951895189518955D9BFECF0CB90895C5
:10006000899A0AB3007F0ABB0BB3007F0BBB8A9847
:10007000DA9805B7016005BF0BB700640BBF09B77D
:10008000046009BF03E309B9539A7894E0EAF0E009
:100090000081118122813381012B022B032BB1F3CB
:1000A00003E5DADF09B300950770005D0093A40053
:1000B0000091A400D1DF09B308700093A40000915F
:1000C000A400002319F00BE2C7DF02C00DE2C4DF79
:1000D00040EA56E861E070E0E0EAF0E0008111817A
:1000E000228133810E94B5014AE050E060E070E077
:1000F0000E94B501042F005DAFDF40E157E260E0F0
:1001000070E0E0EAF0E000811181228133810E94F9
:10011000B5014AE050E060E070E00E94B501042FB4
:10012000005D9ADF48EE53E060E070E0E0EAF0E066
:1001300000811181228133810E94B5014AE050E0A3
:1001400060E070E00E94B501042F005D85DF44E6A9
:1001500050E060E070E0E0EAF0E00081118122818F
:1001600033810E94B5014AE050E060E070E00E94F7
:10017000B501042F005D70DF4AE050E060E070E000
:10018000E0EAF0E000811181228133810E94B50113
:100190004AE050E060E070E00E94B501042F005D8D
:1001A0005BDF4AE050E060E070E0E0EAF0E0008110
:1001B0001181228133810E94B501042F005D4CDF43
:1001C0000DE04ADF0AE048DF00E010E020E030E028
:1001D000E0EAF0E0008311832283338357CF8A93D0
:1001E000FA93EA933A922A921A920A927A936A932B
:1001F0005A934A933A932A931A930A938FB700B368
:10020000302E32FA26F00EB501600EBD54C00EB588
:10021000087F0EBD0FEF1FEF20E030E0E0EAF0E0D6
:1002200000831183228333830091A50010E020E036
:1002300030E0E0EAF0E040815181628173810E9408
:100240008D01E0EAF0E000831183228333830CB553
:100250001DB520E030E0E0EAF0E0408151816281AC
:100260007381400F511F621F731F4083518362834C
:100270007383E0EAF0E00081118122813381E0EABA
:10028000F0E0008311832283338343E0E0EAF0E06F
:1002900000811181228133810E94AD01E0EAF0E00A
:1002A000008311832283338300E010E01DBD0CBD69
:1002B00000E00093A5008FBF099119912991399110
:1002C00049915991699179910990199029903990A2
:1002D000E991F991899118951A930A931FB70091A2
:1002E000A50003950093A5001FBF099119911895CA
:1002F00000008895FECF0FE90DBF00E00EBFC0E8FB
:10030000D0E00E94D801002311F00E94E8010E9471
:1003100030000E9478010C9478012224349F302D03
:10032000259F300D169F300D079F300D249F202DE7
:10033000310D159F200D311D069F200D311D149F7D
:10034000102D210D321D059F100D211D321D049F02
:10035000002D110D221D321D08954A952AF0369563
:10036000279517950795F9CF0895002411241001BA
:10037000E0E2EA9592F0001F111F221F331F001CBC
:10038000111C221C331C041615062606370688F39A
:10039000041A150A260A370AECCF001F111F221F64
:1003A000331FA001B1010095109520953095089557
:1003B00001E0089520E006D0E9F70895259102D0E4
:1003C000E9F708952D9301501040202F212B089517
:1003D00084E094E0FC0105911491FC013296A59112
:1003E000B491FC01349625913491422F432B19F09E
:1003F000F901E4DF01C0DEDF069614E08A309107E0
:0A04000048F308950600A000000074
:00000001FF
:00000001FF
